:020000040800F2
:1000000090060020AD010008471B00089D1A00085B
:10001000451B0008B3130008A91C000800000000DD
:100020000000000000000000000000004B1B000862
:10003000B914000800000000491B00084D1B00080F
:10004000C7010008C7010008C7010008C701000870
:10005000C7010008C7010008C7010008C701000860
:10006000C7010008C7010008C7010008C701000850
:10007000C7010008C7010008C7010008C701000840
:10008000C7010008C7010008C7010008C701000830
:10009000C7010008C7010008C7010008C701000820
:1000A000C7010008C7010008C7010008C701000810
:1000B000C7010008C7010008C7010008C701000800
:1000C000C7010008C7010008C7010008C7010008F0
:1000D000C7010008491C0008C7010008C701000843
:1000E000C7010008C7010008C701000800F002F8B6
:1000F00000F04DF80AA090E8000C82448344AAF175
:100100000107DA4501D100F042F8AFF2090EBAE872
:100110000F0013F0010F18BFFB1A43F0010318473B
:100120006022000080220000103A24BF78C878C105
:10013000FAD8520724BF30C830C144BF04680C60ED
:10014000704700000023002400250026103A28BF35
:1001500078C1FBD8520728BF30C148BF0B60704739
:10016000662902F0AF80672902F0AC80642900F0B4
:100170005180002070471FB500F0DEFB0400002016
:10018000002101F037FFE0601FBD10B510BD00F089
:10019000D3FC1146FFF7EFFF01F0FEFD00F0F1FC8C
:1001A00003B4FFF7F2FF03BC00F034FD09488047B9
:1001B00009480047FEE7FEE7FEE7FEE7FEE7FEE749
:1001C000FEE7FEE7FEE7FEE704480549054A064B61
:1001D00070470000451C0008ED000008900000205A
:1001E0009006002090020020900200200FB41CB561
:1001F000074B06AA7B4469460090059800F083FBF4
:100200000020694600F092FB1CBC5DF814FB000066
:10021000350700002DE9F0410646002410687529D5
:10022000314616A510D0AFF30080002802DA404214
:1002300013A507E031688A0701D512A502E0490736
:1002400004D511A5012401E0AFF3008000210A22AA
:1002500006F1240709E0B0FBF2FCB0FBF2F302FB6D
:100260001C00303078541846491C0028F3D123462E
:100270002A463046BDE8F04100F0D8B80000000042
:100280002D0000002B000000200000002DE9F047A9
:100290004FF0000A89460446C0F820A02046E168D5
:1002A0008847002876D0252806D0D4E90121904738
:1002B000206A401C2062F1E7E1682046002588475B
:1002C000C4F81CA006460027C4F818A02A2E09D09E
:1002D000304601F00EFD38B304EB8708303EC8F815
:1002E000186019E059F8041B204604EB870291615D
:1002F000E1688847012F064618D1E069002820DA16
:1003000025F020051DE0D8F8180000EB800006EB72
:1003100040003038C8F818002046E1688847064693
:1003200001F0E7FC0028EED1012F0AD02E2E08D1D3
:100330002046E16888477F1C0646022F45F02005CD
:10034000C4DBA069002803DA404245F00105A06142
:10035000E80701D025F01005B6B1A6F14100192833
:1003600002D8203645F400654A46314620462560CD
:100370004D46FFF7F5FE58B1012806D0ED1D25F0DA
:10038000070000F1080989E704E005F1040985E7A1
:1003900030468AE7206ABDE8F08710B5431C02E0CA
:1003A00010F8011B71B18107FAD14FF0013202C878
:1003B0008C1A8C4314EAC211F9D0C01A0A0603D071
:1003C000C01E10BDC01A10BD0A0401D0801E10BD91
:1003D0000902FCD0401E10BD4FF0000200B51346CC
:1003E00094469646203922BFA0E80C50A0E80C5055
:1003F000B1F12001BFF4F7AF090728BFA0E80C5006
:1004000048BF0CC05DF804EB890028BF40F8042BFE
:1004100008BF704748BF20F8022B11F0804F18BF6B
:1004200000F8012B70477047704770472DE9F0477F
:100430000D4699469246044600F124080168880654
:1004400004D5E06921F01001216000E00120A842FC
:1004500001DD471B00E00027A1697A1902EB0900C2
:10046000081AA0612078C00602D42046AFF30080AD
:10047000002608E0D4E901211AF806009047206A16
:10048000401C761C20624E45F4DB2078C0060AD55D
:100490002046AFF3008006E0D4E9012130209047E8
:1004A000206A401C2062381EA7F10107F4DC07E037
:1004B000D4E9012118F805009047206A401C206209
:1004C000281EA5F10105F3DC2046AFF3008020785B
:1004D000000602D50220BDE8F0870120FBE7704747
:1004E0002DE9FF4F0C461E464FF0FF378BB0D2E987
:1004F0000001DDF860800A908A46C1F30A5505B90B
:100500003D46002108464FF00000BAF1000F00F40C
:10051000400005DA00EB80004FF4400101EA500092
:100520004FEA9059B9F1010F00DDB9460A9850EA37
:100530004A000ED044F61050A5F2FF3545432F1463
:10054000B8F1000F1ED07542291E1EDDC9F1000250
:100550001CE0B8F1010F4FF0000001D0302103E0A2
:10056000F24305E02154401CB042FBDB3046002240
:10057000002121540B99C1F80880C1E900200FB077
:10058000BDE8F08FBD1B6D1CDEE74A4600DA69420C
:1005900006A800F05BFA06AB93E8070003AB83E81C
:1005A000070050460A9900F03CFB8DE80700A0F5D3
:1005B00000501F3800900398002D0ADD42F21F0101
:1005C0004A460844002303A90390684600F0A5FDAD
:1005D00009E0A0F500504A461F38002303A9039004
:1005E000684600F0AFFD8DE807000004000C03D062
:1005F0004FF0FF30410800E01046B8F1000F03D083
:100600000022009215461EE0751E05D400F098F9F0
:10061000303262556D1EF9D5B3460122084302D02F
:1006200000227F1C04E02078302801D100227F1EA8
:10063000002A099784D01DE0112D07DA00F080F917
:10064000303262556D1C50EA0102F5D1084302D0E8
:100650000098C8B10EE00021681E05E0235C625CD2
:1006600063542254401E491C8142F7DBAB46A81B51
:10067000401E0990002004F80B000B98099AC0F85E
:100680000880C0E9002B7AE711264FF0000857E7F1
:100690002DE9F04F88460446D21D22F0070191B0A3
:1006A000D1E90001CDE90A0101F0FFFA02460B98F9
:1006B000C00F01D02D2007E02068810701D52B2035
:1006C00002E0202101EAC000032A099001D0072A94
:1006D00005DB03464146204600F078F90BE120781F
:1006E000800601D5E06900E00620B8F1650F81467B
:1006F00006D0B8F1660F18D0B8F1670F70D131E0AD
:100700000020B9F1110F009001DB112301E009F184
:1007100001030AAA01A90CA8FFF7E2FEDDE90C70AB
:10072000002609F10105834647E001204B46009071
:100730004FF000470AAA01A90CA8FFF7D1FEDDE996
:100740000DB00C995D46002610B909F101000D1895
:10075000B9EB050003D4C0F1FF3609F10105A5EBA3
:1007600009002BE0B9F1010F01DA4FF00109002077
:10077000B9F1110F0090484601DD112300E0034656
:100780000AAA01A90CA8FFF7ABFEDDE90C704D46E3
:1007900000268346207800070AD4AB4500DA5D4680
:1007A00001A8012D04DD411911F8011C302907D0E1
:1007B0004F4502DA17F1040F04DA012082460FE0F8
:1007C0006D1EEEE7002F02DCED1B3E4403E0781CBB
:1007D000A84200DD7D1CB81B00F1010A4FF0004764
:1007E0002078000703D4AA4501DB4FF0FF3A00212F
:1007F000B7F1004F0DF143088DF8431024D00220CB
:100800002B23002F01DA7F422D230A21021EA0F1A3
:10081000010000DC5FB197FBF1FC97FBF1F201FBFB
:100820001C7C17460CF1300C08F801CDEEE7A8F15E
:10083000010003702188090501D5452100E06521EB
:10084000A0F1010800F8011C09980FA9A1EB080705
:10085000FF1D00B10120411901EBEA70A169384484
:10086000081A401EA0612078C00602D42046AFF3CB
:100870000080099828B1D4E901219047206A401CE2
:1008800020622078C00622D52046AFF300801EE00B
:10089000002E04DBB34502DD01A8805D00E03020BE
:1008A000D4E901219047206A401C2062761CAAF1FD
:1008B00001005FEA000A0AD100F03EF8C068016852
:1008C000405CD4E901219047206A401C2062281E28
:1008D000A5F10105DCDC07E0D4E9012118F8010BE2
:1008E0009047206A401C2062381EA7F10107F3DC04
:1008F0002046AFF30080032011B041E601694A1C95
:1009000002610878704700B58FB0CDE90131002150
:10091000059105497944CDE9031011466846FFF772
:10092000B5FC0FB000BD0000E5FFFFFF0A6802F84C
:10093000010B0A607047000000487047500000201B
:1009400030B5B0F10A024FEA900E71F100034EEAA1
:10095000817EB0EB0E0061EB91014FEA101E4EEA72
:10096000017E10EB0E0041EB11114FEA102E4EEA02
:10097000016E10EB0E0041EB11214FEA104E4EEAD2
:10098000014E10EB0E0041EB1141401841F1000106
:100990004FEAD00040EA41704FEAD10110EB8005E8
:1009A0004FEA810444EA907444EB01046D1944EB6E
:1009B0000404521BA3414FF0000348BF0A3200D584
:1009C00030BD401C41F1000130BD00002DE9F04177
:1009D0001F46044603260168072A01F4006004DB71
:1009E00008B116A505E016A503E008B115A500E0BD
:1009F00015A521F010002060A069C01EA0610FB1F4
:100A0000401EA0612046AFF300804FB1D4E9012120
:100A100038469047206A401C2062C01C206206E0D5
:100A2000206AFAE7D4E9012115F8010B9047761EF8
:100A3000F8D22046AFF30080BDE8F0814E414E0071
:100A40006E616E00494E4600696E66002DE9F04702
:100A5000814616468AB0354878440DC88DE80D00A9
:100A600032487844801C03AC0DC884E80D0041F680
:100A70009B300844372190FBF1F290FBF1F5A5F192
:100A8000800501FB12041B3C02D56442012000E0FA
:100A90000020DFF898A080460027FA44AAF1BE0A99
:100AA0000EE0E0070AD03246684607EB4701012313
:100AB0000AEB810100F046FB8DE8070064107F1C03
:100AC000002CEED1194F7F44AE3F19E0E80715D056
:100AD00007EB04100DF1180A90E80E008AE80E00EA
:100AE000C068F04201D1981908903246012306A946
:100AF00003A800F027FB03AB83E807006D10641C1C
:100B0000002DE3D14FF0010332466946B8F1000FE2
:100B100003A802D000F001FB01E000F013FBC9E9DB
:100B20000001C9F808200AB0BDE8F0870C190000E0
:100B300000487047300000207546FFF7F9FFAE46C9
:100B400005006946534620F00700854618B020B5D9
:100B5000FFF73AFBBDE820404FF000064FF00007DA
:100B60004FF000084FF0000B21F00701AC46ACE855
:100B7000C009ACE8C009ACE8C009ACE8C0098D46C2
:100B8000704710B50446AFF300802046BDE8104022
:100B9000FFF706BB4FF0013C50F8042B51F8043B23
:100BA0009A4221D1A2EB0C03934313EACC1317D141
:100BB00050F8042B51F8043B9A4215D1A2EB0C03D8
:100BC000934313EACC130BD150F8042B51F8043B98
:100BD0009A4209D1A2EB0C03934313EACC13DBD066
:100BE0004FF00000704700BFD01A01BAB1FA81F18E
:100BF00001F0180122FA01F0CB40C1F12001DBB273
:100C0000C0B2C01A2CFA01F3D11A914311EAC311F0
:100C1000E6D1704701491820ABBEFEE7260002006E
:100C200070475FEA400C08BF91F0000F4FEA8C2339
:100C30004FEAC12243EA51514FEA1C5018BF00F558
:100C4000F0404FEA300018BF41F000415FEA6C5CB1
:100C500000F02980BCF1FF3F08BF40F080407047A2
:100C6000130C06BF12044FF0100C4FF0000C130EC3
:100C700004BF12020CF1080C130F04BF12010CF197
:100C8000040C930F04BF92000CF1020CD30F04BFAD
:100C900052000CF1010C11464FF00002A0F11F00B0
:100CA000A0EB0C00704711F0004F08BF704731F007
:100CB00000413FF4D5AF0B0C06BF09044FF0100CF8
:100CC0004FF0000C0B0E04BF09020CF1080C0B0FC7
:100CD00004BF09010CF1040C8B0F04BF89000CF157
:100CE000020CCB0F04BF49000CF1010CCCF1200326
:100CF000A0EB0C0022FA03F302FA0CF241EA030122
:100D000000F10100704720F07F4C80EA030023F0DF
:100D10007F47ACEB070303F57C5300F0004003F181
:100D2000FF032DE980494FEA154B09B44FEA1443FC
:100D300025EA0B4E24EA03480FF2042606EB13279C
:100D400049083E785FEA320203FB0667C7F50007F1
:100D500007FB06F64FEA54374FEAD64606F102067D
:100D600007FB066CCCF1005C4FEA1C472CEA074CF1
:100D700007FB06F40CFB06F504EB15464FEA961646
:100D800034BF00204FF000404FEAD13706FB07FC8C
:100D90004FEA1C4C0CFB0BF7D21B03FB0CF761EB6F
:100DA00007010CFB0EF7B0EB074072EB17420CFB90
:100DB00008F734BFA2EB0742B2EB074261EB1741E1
:100DC0004FEA0C444FEA910706FB07FC4FEA1C4C24
:100DD0000CFB0BF7B0EBC74072EB573203FB0CF781
:100DE00034BFA2EBC742B2EBC74261EB57310CFBF9
:100DF0000EF7B0EBC70072EB57720CFB08F734BF6D
:100E0000A2EBC702B2EBC70261EB5771039F4FEA37
:100E1000816141EA921104EBCC044FEAD1374FEAE9
:100E2000826206FB07FC42EA90124FEA80604FEABA
:100E30001C4C0CFB0BF7D21B03FB0CF761EB0701FF
:100E40000CFB0EF7B0EB074072EB17420CFB08F7F8
:100E500034BFA2EB0742B2EB074261EB17414FEA06
:100E60008C554FEA910704EB9C2406FB07FC4FEAE4
:100E70001C4C0CFB0BF7B0EBC74072EB573203FB7B
:100E80000CF734BFA2EBC742B2EBC74261EB57315C
:100E90000CFB0EF7B0EBC70072EB57720CFB08F7B8
:100EA00034BFA2EBC702B2EBC70261EB577115EB7F
:100EB0004C254FEA816141EA92114FEA82624FEA82
:100EC000D13742EA901206FB07FC44F100044FEAD6
:100ED00080604FEA1C4C0CFB0BF7D21B03FB0CF79A
:100EE00061EB07010CFB0EF7B0EB074072EB17420A
:100EF0000CFB08F734BFA2EB0742B2EB074261EBF1
:100F0000174115EB1C154FEA813141EA92414FEA36
:100F1000823242EA90424FEA80304FEA0C7644F146
:100F2000000448EA03434EEA0B484FF0000EB2EBD0
:100F3000080C71EB030724BF624639464EEB0E0ED8
:100F40004FF0000B0018524149414BEB0B0BB2EB39
:100F5000080C71EB03077BF1000B24BF6246394696
:100F60004EEB0E0E4FF0000B0018524149414BEB77
:100F70000B0BB2EB080C71EB03077BF1000B24BFEA
:100F8000624639464EEB0E0E51EA020718BF46F094
:100F9000010616EB0E7655F1000254F1000103D55F
:100FA000BDE88901BDE80088BDE88901BDE80048C9
:100FB000B619524141EB0101A3F101037047808052
:100FC0007F7E7D7C7B7A79787776767574737271A3
:100FD00071706F6E6E6D6C6C6B6A6A69686867665B
:100FE00066656464636362616160605F5F5E5E5DED
:100FF0005D5C5C5B5B5A5A59595858575756565561
:1010000055555454535352525251515050504F4FC2
:101010004F4E4E4D4D4D4C4C4C4B4B4B4A4A4A4912
:101020004949484848474747474646464545454455
:101030004444444343434342424242414141002BE2
:101040009C4630D477002BD01CB54FEA370703B449
:101050004FF010004FF01001BAF1000F06D0BCF1B4
:10106000000FDCBF40F0080040F008014FF0000026
:101070000FBCBDE810400BF1010BBBF1010F08BF25
:101080005FEA170722BF12F1010211F101014FF0CF
:10109000004143F1000300F0004043EA00007047C4
:1010A000F9D35708D0E746EA064613F1400F4FEA56
:1010B00016461FDD13F1200FDFBF16430A4600213D
:1010C00020335B42BED0C3F1200746EA064602FA4F
:1010D00007F74FEA164646EA0706C3F1200722FA49
:1010E00003F201FA07F721FA03F14FF0000342EA95
:1010F0000702A7E746EA020646EA06464FEA164610
:1011000046EA0106BCBF46EA0646360C4FF000032D
:101110004FF000024FF0000194E72DE9804C9A4611
:10112000934670B491E8380007C831EA400C48BFD4
:1011300034EA430C03D5FFF7E6FDFFF780FFF0BC70
:10114000BDE8008C2DE9804C9A46934670B491E836
:10115000380007C810F0804F08BF13F0804F03D14C
:1011600000F005F8FFF76BFFF0BCBDE8008C20F045
:101170007F4780EA030023F07F4C07EB0C03A3F5C5
:101180007C5300F00040A3F1FE0392F0000F00F04A
:10119000B38095F0000F00F077802DE901494FEA08
:1011A00011404FEA144621EA004800FB06FC24EAFD
:1011B000064708FB06F607FB08F800FB07F718EBE5
:1011C00006484CEB164C4FEA124B18EB07484FEA17
:1011D00015464CEB174022EA0B4E0BFB06FC25EAAA
:1011E00006470EFB06F607FB0EFE0BFB07F71EEB92
:1011F000064E4CEB164C4FF000061EEB074E4CEB28
:10120000174B18EB0B0840F1000018EB0E0B58EBD6
:10121000000840F100008F1A4FF000013CBFC943A5
:10122000661B14BFB5EB040C00213CBFC943F61B81
:101230004FEA17444EEA8E0E27EA04454FEA1C4750
:1012400004FB07622CEA074C05FB07F70CFB05F6CD
:1012500004FB0CFC16EB074642EB174216EB0C4660
:1012600042EB1C421BEB060658EB0202414146EAE8
:101270009E0601D5BDE80189B619524141EB010135
:10128000A3F10103BDE801894FEA14454FEA114774
:1012900024EA054621EA074C05FB07F406FB07F79D
:1012A0000CFB06F105FB0CFC11EB074144EB17446A
:1012B0004FEA124711EB0C4144EB1C4422EA074C65
:1012C00005FB07F206FB07F70CFB06F605FB0CFC1B
:1012D00016EB074642EB174216EB0C4642EB1C4559
:1012E0006A1854F1000148BF7047B619524141EBEA
:1012F0000101A3F10103704795F0000F37D04FEAC9
:1013000011424FEA144721EA024624EA074C02FB45
:1013100007F106FB07F70CFB06F402FB0CFC14EBD1
:10132000074441EB17414FEA154714EB0C4441EBDE
:101330001C4125EA074C02FB07F506FB07F70CFBEF
:1013400006F602FB0CFC16EB074645EB174516EBC1
:101350000C4645EB1C42121951F1000148BF704781
:10136000B619524141EB0101A3F1010370474FEA65
:1013700014454FEA114724EA054621EA074C05FBCC
:1013800007F106FB07F70CFB06F24FF0000605FB22
:101390000CFC12EB074241EB174112EB0C4251EBF4
:1013A0001C4148BF7047921841EB0101A3F10103B2
:1013B0007047FEE72DE9F0411B4E1C4C00254FF015
:1013C000010800BF00F07AF8C4F8180000F076F8C1
:1013D000E0613068800504D4D4E90601801C8842AD
:1013E000F4D8282000F0A8FC3068C5F1070180057A
:1013F00008FA01F001D4874301E03843C7B200F096
:101400005DF8A06100F05AF8E0613068800504D50D
:10141000D4E90601801C8842F4D86D1CEDB2082D79
:10142000D0D33846BDE8F081080C01400000002010
:1014300070B5184C0025206820F0F000206020686E
:1014400040F020002060134EE0050C36306040F282
:10145000145000F071FC601530601E2000F06CFC30
:10146000206820F0F0002060206840F080002060BC
:10147000301F016841F400710160782000F05CFCCD
:10148000201D0068800500D50125282000F054FCAF
:10149000284670BD040C01400548016841F0807188
:1014A00001600448016841F00101016070470000DB
:1014B000FCED00E0001000E070470000014880688B
:1014C0007047000020000020024881680278114423
:1014D0008160704720000020074810B5016841F086
:1014E00010010160032000F067F80F2000F006F8FB
:1014F00000F024F8002010BD0020024070B50D4D12
:1015000004464FF47A712878B1FBF0F00A49096873
:10151000B1FBF0F000F0AEFA48B9102C07D200226F
:101520002146501E00F028F800206C6070BD01209C
:1015300070BD0000200000202C0000200C4808B5E1
:10154000816941F001018161816901F0010100912E
:10155000C16941F08051C161C06900F080500090C4
:101560000448416821F0E06141F00071416008BD2C
:101570000010024000000140F0B40E4B1B680C4606
:10158000C3F30223C3F10705042D00D90425191D57
:10159000072901D2002300E0DB1E012606FA05F12F
:1015A000491E214099409E40761E16403143F0BCB2
:1015B00000F08FBB0CED00E0064900F00702086860
:1015C0004FF6FF03184040EA0220034A1043086028
:1015D000704700000CED00E00000FA052DE9F0472F
:1015E0000F46050061D0434E306800F00700B84256
:1015F00009D2306820F0070038433060306800F0CE
:101600000700B84251D128683B4C810712D54007EA
:1016100003D5606840F4E06060602878000703D577
:10162000606840F4605060606068A96820F0F00075
:10163000084360602878C00728D06868012810D067
:101640002168022810D0890700292EDA616821F06C
:10165000030101436160FFF731FF804641F28839A1
:101660000DE021688903EFE78901EDE7FFF726FF29
:10167000A0EB0801494502D90320BDE8F087606866
:10168000696800F00C00B0EB810FEFD1306800F01A
:101690000700B8420BD9306820F0070038433060AB
:1016A000306800F00700B84201D00120E5E7287853
:1016B000400705D56068E96820F4E0600843606091
:1016C0002878000706D56068296920F4605040EA50
:1016D000C100606000F018F86168084AC1F30311A6
:1016E000515CC8400649086006480068FFF706FFDD
:1016F0000020C2E70020024000100240DA22000869
:101700002C000020240000200E4A51680E4801F0F1
:101710000C03042B11D0082B0FD10C48C1F38343C9
:10172000C903C05C0AD55168084AC1F34041921E02
:10173000515C054A5043B0FBF1F0704704494843FF
:10174000704700000010024000127A00CA22000810
:1017500000093D002DE9F84F040070D02078C04DFD
:10176000C00749D06868C0F38100012807D06868C5
:10177000C0F38100022809D16868C00306D5286833
:10178000800339D560680028E7D035E06068B0F59F
:10179000803F0BD010B1B0F5A02F11D0286820F4F5
:1017A00080302860286820F4802002E0286840F417
:1017B00080302860606890B1FFF780FE06460AE03E
:1017C000286840F480202860F0E700BFFFF776FE2D
:1017D000801B642873D828688003F7D50CE0FFF7D6
:1017E0006DFE064605E000BFFFF768FE801B64281B
:1017F000F0D828688003F7D420789A4E80074FF0FD
:1018000001094FF0000839D5686810F00C0F07D0B7
:101810006868C0F38100022809D16868C00306D453
:101820002868800714D52069012808D110E02069B4
:10183000B0B1C6F80090FFF741FE074605E00AE1A7
:10184000FFF73CFEC01B0228C4D828688007F7D5E4
:101850002868616920F0F80040EAC10028600DE0C6
:10186000C6F80080FFF72AFE074604E0FFF726FED1
:10187000C01B022823D828688007F7D420780007E7
:101880002CD57948A169D9B1C0F80090FFF716FEB0
:10189000074604E0FFF712FEC01B02280FD8686A53
:1018A0008007F7D571484FF4FA510068B0FBF1F0AA
:1018B000009000BF0098411E0091FAD20EE080E037
:1018C000C0F80080FFF7FAFD074604E0FFF7F6FDD9
:1018D000C01B022875D8686A8007F7D420784007B3
:1018E00060D5E8690027C00008D4E86940F080505E
:1018F000E861E869012700F0805000905C480168C9
:10190000C90513D40168834641F480710160FFF773
:10191000D5FD824606E000BFFFF7D0FDA0EB0A0030
:1019200064284ED8DBF80000C005F5D5E068012832
:101930000AD008B1052813D0286A20F001002862D7
:10194000286A20F0040002E0286A40F001002862C2
:10195000E06841F2883B98B1FFF7B0FD82460BE0AA
:10196000286A40F004002862EEE700BFFFF7A6FDFA
:10197000A0EB0A0159455AD8286A8007F6D50CE031
:10198000FFF79CFD824605E0FFF798FDA0EB0A01FA
:1019900059454CD8286A8007F6D41FB1E86920F071
:1019A0008050E861E06988B36968C1F38101022968
:1019B00044D00228C6F8608004D0FFF77FFD0446BB
:1019C00038E034E0FFF77AFD074604E0FFF776FDE4
:1019D000C01B02282BD828688001F7D4206AB0F5F4
:1019E000803F05D16868A16820F400300843686032
:1019F000D4E908010843696821F474110843686058
:101A0000C6F86090FFF75AFD044606E025E000BFE7
:101A1000FFF754FD001B022809D828688001F7D57C
:101A20001BE000BFFFF74AFD001B022802D903207C
:101A3000BDE8F88F28688001F4D40EE00128F7D0C3
:101A40006868226A00F48031914204D1616A00F42E
:101A50007010884201D00120EAE70020E8E700008A
:101A60000010024000004242800442422C0000204C
:101A70000070004010B5401EB0F1807F01D30120FE
:101A800010BD4FF0E02460610F21601700F021F9D4
:101A90000020A06107202061002010BDFEE70000AB
:101AA000244810B5816941F03C01816122480168F8
:101AB00000210160031D1A6819601F4A0C32146866
:101AC0001160046844F4C0340460146844F00804ED
:101AD0001460046844F0C0540460106840F0400092
:101AE0001060186840F020001860144A10681160F7
:101AF0001348C368C160114B0C3B1C68196019681E
:101B000041F033311960116821F0FF011160416823
:101B100021F07F414160416841F008514160181D4A
:101B2000016821F0F0010160016841F0A00101604D
:101B300010BD000000100240000C01400C080140E4
:101B400000100140FEE7FEE770477047FFF7BCBC9E
:101B500030B58FB028216846FEF73EFC14210AA854
:101B6000FEF73AFC0120009000040024CDE90104B6
:101B70000225CDE907504FF4E01009906846FFF7C1
:101B8000E9FD08B172B6FEE70F20CDE90A054FF472
:101B90008060CDE90C4002210AA80E94FFF71EFDDB
:101BA00008B172B6FEE70C48016841F0010101601E
:101BB00001688907FCD5816941F001018161816972
:101BC00041F004018161816941F48041816100F04B
:101BD00005F80FB030BD000000100240144910B5E8
:101BE0004868144A10F00C03134803D0042B01D0AA
:101BF000082B09D002604968104AC1F30311515CF7
:101C00000268CA40026010BD4A684B6802F4701254
:101C10004FF0020413F4803F04EB924202D04B6871
:101C20009B0301D5064B00E0024B5A43E2E700005C
:101C30000010024000127A002C000020DA22000876
:101C400000093D0070470000144800B50068800698
:101C500022D51248001D00681149C0B24128887180
:101C600006D0422807D043280AD044280FD10AE0E2
:101C700000F076F801E000F081F800F041F806E0AD
:101C800000F06EF801E000F079F800F047F8054840
:101C9000016821F02001016000BD00000038014012
:101CA0000000002000440040FEE7490050EAC12047
:101CB00018BF04204A0D18BF40F0010040F2FF7227
:101CC000B2EB515F08BF40F00200012808BF0520B9
:101CD00070470907090E002804DB00F1E02080F8B6
:101CE0000014704700F00F0000F1E02080F8141D90
:101CF000704730380A2801D2012070470020704711
:101D00000448016821F010010160034900200861C6
:101D1000704700000C0C01400000002004480168DE
:101D200041F0100101600349012008617047000083
:101D30000C0C014000000020064A10B5536806490B
:101D4000064C0968B1FBF4F141435068C01A88425F
:101D5000FBD310BD001000E02C00002040420F001B
:101D60000448016821F080010160034900204861B6
:101D7000704700000C0C014000000020044801687E
:101D800041F0800101600349012048617047000073
:101D90000C0C0140000000209EB0FFF77DFBFFF718
:101DA0009BFBFFF7D5FEFFF77BFE00F00FF901204C
:101DB00000F0BEF80C2000F0BBF8454D0126454C64
:101DC000DFF814A1DFF814B100272868000701D458
:101DD000266100E027612868400601D5666100E0C1
:101DE0006761FFF725FB002866D0FFF7E3FA207054
:101DF000FFF7E0FA6070FFF7DDFAA070FFF7DAFA9C
:101E0000E070FFF7D7FA20710246207861788146AA
:101E100088460844A1784318E0780344DBB2637134
:101E2000934245D17F2903D900F0EEF92C4904E013
:101E300040EA012000F0E8F9514600F023F9A060E3
:101E400048EA092000F0E0F9514600F01BF9E06093
:101E500000F0ECF880468946A06800F0E7F80246FA
:101E60000B4620A104A8CDE90089FEF7BFF90120A7
:101E700000F05EF804A800F08BF8E06800F0D6F8F7
:101E800080468946A06800F0D1F8D4E90423CDE962
:101E9000022302460B4616A104A8CDE90089FEF7ED
:101EA000A5F904A8FEF779FAC1B204A800F07CF8FD
:101EB0005846FFF741FF88E7012000F039F811A0EC
:101EC00000F066F812A104A8FEF790F9E9E7000017
:101ED000080C0140000000200000204140420F009B
:101EE000000020C12025674320256725250000002C
:101EF000252E31662C252E31662C25642C25640A6E
:101F00000D0000004448543232204572726F720056
:101F10004448543232204572726F720D0A0000003C
:101F200002494FF47F020A600860704710080140C0
:101F30000A4B00B5D96821F48041D960FFF7F0FF62
:101F4000D86820F40040D860D86840F40040D860D9
:101F50004FF47A705DF804EBFFF7EEBE001001401D
:101F60000A4B00B5D96841F48041D960FFF7D8FF2A
:101F7000D86820F40040D860D86840F40040D860A9
:101F80004FF47A705DF804EBFFF7D6BE0010014005
:101F900030B50546002402E0FFF7E2FF641C285D2F
:101FA0000028F9D130BD000030B5074C0022231FB6
:101FB00006E0855C25601D682D06FCD5521CD2B25A
:101FC0008A42F6D330BD000004380140074801685A
:101FD00042F22C0211430160044941F64C50091FA2
:101FE000086003492020C1F8000170470C38014007
:101FF00004E000E010B500290AD00878002807D0D6
:1020000005487844FEF7C6FD002801D0002010BD29
:102010000248784410BD00009E03000096030000B3
:102020000808A0F500114FEA3101704743004FEA5C
:10203000D30C4FEA3C0C43401FBF40070CF16051EA
:1020400013F0FE4F70471CF0006F03D100200CF01E
:10205000004170470CF0004343EA507010B540EA6D
:10206000CC0000F0E4F800BF000000924FEA00014D
:10207000FFF7D6BF4FF000414FF00000A1F500215F
:10208000704700004FF47F0C1CEAD0121EBF1CEA00
:10209000D11392EA0C0F93EA0C0F00F0858090EABE
:1020A000010F48BF42F4807240F4000C41F400007C
:1020B0002CF07F4120F07F4000B58142A2EB03026B
:1020C0000FF2081CACEB504EC0F100009EF800E08F
:1020D0004FEA4E0E00FB0EFC38BF49004FEA2C1CA5
:1020E00002F5FA020CFB0EF34FEACE1E4FEA112C5A
:1020F0004FEAC1210EEB635E42EB22420EFB0CFC69
:102100004FEA1C5300FB03114FEA112C4FEA013137
:102110000EFB0CFC4FEADC4C00FB0C11C14228BF4B
:1021200009184CEB03335DF804EB10EB410143EB72
:10213000C250B2F57C0F38BF704729D512F0F00FAE
:102140001CBF00F1C04000F0004070470081828356
:102150008485868788898B8C8D8E8F9192939596B6
:1021600097999A9C9D9FA0A2A3A5A7A8AAACAEB040
:10217000B2B3B5B7B9BCBEC0C2C5C7C9CCCED1D445
:10218000D7D9DCDFE2E6E9ECF0F3F7FAFE00000075
:102190004FEA400C0CF1807CBCF17E4F28BF7047A9
:1021A000B0F1C04000F089B890EA010F0CEAD113F9
:1021B00048BF42F48072624538BF634507D213F4CA
:1021C0007F0F16D080EA010000F00040704710B584
:1021D00000F02DF8097EFC3E00F005B880EA010011
:1021E00000F00040704780EA010000F0004000F07D
:1021F00064B812F47F0F04BF0248704780EA010000
:1022000000F05BB80000C07FB0FA80F310FA03F270
:10221000C3F19D030AD0D90501EB1220530638BF44
:10222000704700F1010008BF20F0010070470EF177
:10223000020E2EF0030E5EF8044B244204D44FEA43
:102240004102B2F17F4F11D84FEA4003B3F17F4F03
:102250000CD80ED14FEAD07CB2F17F4F0CEB4C0C76
:102260000CF1020C08BF4CEBD17C04E04FF0080CE1
:1022700001E04FEAD17C0CEB4C0324FA03F404F0A8
:102280000704B4F1040C06D20EEB840CBDE8104038
:102290004CF0010C6047DFE80CF0070802024FF039
:1022A0000040A0F5800010BD0846420018BFD2F1E2
:1022B000807288BF00F0004010BDFF2141EAD0507D
:1022C000C0057047FEF7E4B90102020304050607E2
:1022D00008090A0B0C0D0E0F101000000000000082
:1022E0000000010203040607080900000240000084
:1022F000000000A00000000005400000000000C831
:10230000000000000C4000000000409C00000000A5
:10231000194000000020BCBE000000003440000056
:10232000BFC91B8E00000004B5400000504BCFD049
:102330006607E2CF010000006C4100003E8251AA16
:10234000DFEEA73401000000D9420000DCB5A0E2B6
:102350003A301F97FFFFFFFFB4450000FD25A0C8DE
:10236000E9A3C14FFFFFFFFFFF3F00000000008017
:1023700000000000FF3F000000000080000000009F
:10238000BC230008000000203000000028010008E5
:10239000EC23000830000020600600004401000823
:1023A0001C00000043000000F8FFFFFF0C000000CD
:1023B0000E0000000F0000002E00000000000000D2
:1023C000000000000000000000000000000000000D
:1023D00000000000000000000000000001000000FC
:0C23E00010000000000000000024F400C9
:04000005080000ED02
:00000001FF
